:100000000C942A000C943C000C943C000C943C0092
:100010000C943C000C943C000C94F8010C942102CC
:100020000C944A020C9473020C943C000C943C0017
:100030000C943C000C948F010C947F010C9487016C
:100040000C943C000C943C000C943C000C943C0040
:100050000C943C0011241FBECFE5D8E0DEBFCDBF1D
:1000600010E0A0E6B0E001C01D92AE36B107E1F7A6
:100070000E943E000C94A8040C9400004F925F92E2
:100080006F927F928F929F92AF92BF92CF92DF92A8
:10009000EF92FF920F931F93DF93CF93CDB7DEB70D
:1000A0006E970FB6F894DEBF0FBECDBF0E949701CA
:1000B00083E065E041E00E94B7000E94340199248A
:1000C00088247724AA24BB242E010894411C511CA7
:1000D0005AE0652E03C07724739430C0772071F501
:1000E000C2016EE20E9461012BE01FC0EC3211F4EC
:1000F00083941AC0882089F4C50143E0880F991FB2
:100100004A95E1F7AA0CBB1CA80EB91E80ED9FEF23
:10011000A80EB91EAE0EB11C07C0969CC0011124DA
:1001200090ED992E980E9E0E2F5F2150F201E20F56
:10013000F11D2F5FE081EE23C9F6CDCF6501EE24DE
:10014000FF24692D70E0882777FD8095982F0E9405
:10015000970320E030E048EC52E40E9401038B0159
:100160009C0180E0B701A6010E94B401B7CF8130A5
:1001700031F1813038F0823009F43EC0833009F02B
:1001800072C056C0442321F0413009F06CC00CC04D
:100190002AB381E090E002C0880F991F6A95E2F7C8
:1001A000809582238ABB08952AB381E090E002C043
:1001B000880F991F6A95E2F7282B2ABB08954423DC
:1001C00021F0413009F04FC00CC027B381E090E02E
:1001D00002C0880F991F6A95E2F78095822387BB3A
:1001E000089527B381E090E002C0880F991F6A95B7
:1001F000E2F7282B27BB0895442319F0413099F5E5
:100200000CC024B381E090E002C0880F991F6A956A
:10021000E2F78095822384BB089524B381E090E0C7
:1002200002C0880F991F6A95E2F7282B24BB089516
:10023000442319F04130B9F40CC021B381E090E0BF
:1002400002C0880F991F6A95E2F78095822381BBCF
:10025000089521B381E090E002C0880F991F6A954C
:10026000E2F7282B21BB089580B5806880BD80B55A
:100270008F7B80BD80B58E7F80BD80B58F7E80BD39
:1002800080B58F7D80BD80B5877F80BD80B5826061
:1002900080BD80B5846080BD5298599883E389B948
:1002A000539A549A08955F9BFECF2AB18CB126953C
:1002B00030E021703070322F2227280F311DC90104
:1002C00008950F931F93CF93DF93EC01062F0E94A5
:1002D0005301888310E007C01F5F0E945301FE0195
:1002E000E10FF11D8083FE01E10FF11D8081801778
:1002F00099F71082DF91CF911F910F910895E091AE
:100300006400F0916500309709F009950895E09137
:100310006200F0916300309709F009950895E0912B
:100320006000F0916100309709F0099508958FB54C
:100330008E7F8FBD8FB582608FBD8EB588608EBD7C
:100340008EB580618EBD8FB58F7B8FBD8FB5806878
:100350008FBD08958EB58E7F8EBD8EB582608EBDA9
:100360008EB58B7F8EBD08957F928F929F92AF92B4
:10037000BF92CF92DF92EF92FF920F931F93782E4E
:100380006A017B014801590160E472E48FE090E06A
:10039000A70196010E94860437BD26BD2F5F3F4FFF
:1003A000B90180E090E00E9495039B01AC01C5017A
:1003B000B4010E94230420E030E040E85FE30E94A3
:1003C0009C020E946903772019F47BBD6ABD02C0BC
:1003D00079BD68BD0E94AA011F910F91FF90EF9017
:1003E000DF90CF90BF90AF909F908F907F900895B7
:1003F0001F920F920FB60F9211242F933F934F939A
:100400005F936F937F938F939F93AF93BF93EF937C
:10041000FF93E0916600F0916700309709F009952D
:10042000FF91EF91BF91AF919F918F917F916F91CC
:100430005F914F913F912F910F900FBE0F901F90A2
:1004400018951F920F920FB60F9211242F933F937E
:100450004F935F936F937F938F939F93AF93BF93CC
:10046000EF93FF93E0916800F0916900309709F0F5
:100470000995FF91EF91BF91AF919F918F917F91DE
:100480006F915F914F913F912F910F900FBE0F9001
:100490001F9018951F920F920FB60F9211242F9351
:1004A0003F934F935F936F937F938F939F93AF93FC
:1004B000BF93EF93FF93E0916A00F0916B00309748
:1004C00009F00995FF91EF91BF91AF919F918F91A5
:1004D0007F916F915F914F913F912F910F900FBE40
:1004E0000F901F9018951F920F920FB60F92112424
:1004F0002F933F934F935F936F937F938F939F932C
:10050000AF93BF93EF93FF93E0916C00F0916D0078
:10051000309709F00995FF91EF91BF91AF919F91AD
:100520008F917F916F915F914F913F912F910F909C
:100530000FBE0F901F9018955058BB27AA270ED0BA
:1005400048C139D130F03ED120F031F49F3F11F451
:100550001EF42EC10EF4E095E7FB24C1E92F4AD129
:1005600080F3BA17620773078407950718F071F4D0
:100570009EF562C10EF4E0950B2EBA2FA02D0B0153
:10058000B90190010C01CA01A0011124FF27591BD8
:1005900099F0593F50F4503E68F11A16F040A22FDE
:1005A000232F342F4427585FF3CF4695379527954F
:1005B000A795F0405395C9F77EF41F16BA0B620B4E
:1005C000730B840BBAF09150A1F0FF0FBB1F661F95
:1005D000771F881FC2F70EC0BA0F621F731F841FD8
:1005E00048F4879577956795B795F7959E3F08F0FE
:1005F000B3CF9395880F08F09927EE0F97958795BD
:1006000008950CD0E6C0DED040F0D5D030F021F413
:100610005F3F19F0C7C0511110C1CAC0EBD098F3A9
:100620009923C9F35523B1F3951B550BBB27AA2773
:1006300062177307840738F09F5F5F4F220F331FE5
:10064000441FAA1FA9F333D00E2E3AF0E0E830D0B1
:1006500091505040E695001CCAF729D0FE2F27D0B4
:10066000660F771F881FBB1F261737074807AB0782
:10067000B0E809F0BB0B802DBF01FF2793585F4FF7
:100680002AF09E3F510568F08DC0D7C05F3FECF364
:10069000983EDCF3869577956795B795F7959F5FBC
:1006A000C9F7880F911D9695879597F90895E1E010
:1006B000660F771F881FBB1F621773078407BA076F
:1006C00020F0621B730B840BBA0BEE1F88F7E095CA
:1006D000089598D088F09F5790F0B92F9927B75177
:1006E000A0F0D1F0660F771F881F991F1AF0BA95F6
:1006F000C9F712C0B13081F09FD0B1E008959CC01D
:10070000672F782F8827B85F39F0B93FCCF38695EB
:1007100077956795B395D9F73EF490958095709548
:1007200061957F4F8F4F9F4F0895E89409C097FBC5
:100730003EF490958095709561957F4F8F4F9F4FB8
:100740009923A9F0F92F96E9BB279395F6958795FC
:1007500077956795B795F111F8CFFAF4BB0F11F4BF
:1007600060FF1BC06F5F7F4F8F4F9F4F16C0882366
:1007700011F096E911C0772321F09EE8872F762F9C
:1007800005C0662371F096E8862F70E060E02AF0DD
:100790009A95660F771F881FDAF7880F96958795C9
:1007A00097F9089597F99F6780E870E060E00895F1
:1007B0009FEF80EC089500240A9416161706180679
:1007C0000906089500240A94121613061406050655
:1007D0000895092E0394000C11F4882352F0BB0FE6
:1007E00040F4BF2B11F460FF04C06F5F7F4F8F4F49
:1007F0009F4F089557FD9058440F551F59F05F3F84
:1008000071F04795880F97FB991F61F09F3F79F032
:1008100087950895121613061406551FF2CF4695B4
:10082000F1DF08C0161617061806991FF1CF869536
:100830007105610508940895E894BB27662777271A
:10084000CB0197F908950BD0C4CFB5DF28F0BADFFC
:1008500018F0952309F0A6CFABCF1124EECFCADF55
:10086000A0F3959FD1F3950F50E0551F629FF001C3
:10087000729FBB27F00DB11D639FAA27F00DB11D1C
:10088000AA1F649F6627B00DA11D661F829F2227A5
:10089000B00DA11D621F739FB00DA11D621F839F2C
:1008A000A00D611D221F749F3327A00D611D231F02
:1008B000849F600D211D822F762F6A2F11249F5750
:1008C00050408AF0E1F088234AF0EE0FFF1FBB1F73
:1008D000661F771F881F91505040A9F79E3F510512
:1008E00070F060CFAACF5F3FECF3983EDCF38695C3
:1008F00077956795B795F795E7959F5FC1F7FE2BBD
:10090000880F911D9695879597F90895A1E21A2E63
:10091000AA1BBB1BFD010DC0AA1FBB1FEE1FFF1FA3
:10092000A217B307E407F50720F0A21BB30BE40BF3
:10093000F50B661F771F881F991F1A9469F760953A
:100940007095809590959B01AC01BD01CF010895F4
:04095000F894FFCF49
:00000001FF
