:100000000C942A000C9447000C9447000C94470071
:100010000C9447000C9447000C9447000C94470044
:100020000C9447000C9447000C9447000C94470034
:100030000C9447000C9463020C9453020C945B02E2
:100040000C9447000C9447000C9447000C94470014
:100050000C94470011241FBECFE5D8E0DEBFCDBF12
:1000600010E0A0E6B0E0E6E0F9E002C005900D92F5
:10007000AC39B107D9F710E0ACE9B0E001C01D928E
:10008000A23AB107E1F70E9449000C9481040C9454
:100090000000CF92DF92EF92FF920F931F93CF93C6
:1000A000DF930E9415020E940D048CE00E94C4039D
:1000B00080E00E94B50280E690E00E94B10381E0FA
:1000C00060E00E9403048CE690E00E943F0200E0A2
:1000D000DD24C0E0D0E04AE0C42E2FC080E00E94C2
:1000E0006B02182F8D3359F4023019F48EE290E030
:1000F00002C08CE290E00E9434020F5F23C00E9495
:10010000E402E12EFF24C7010E943402002371F4AF
:10011000CE0133E0880F991F3A95E1F7CC0FDD1F30
:10012000C80FD91FE097CE0DDF1D07C0DC9CC001B2
:10013000112490EDD92ED80ED10E80E00E946B02D2
:100140008F3F61F6013069F481E00E94C40387E7C4
:1001500090E00E94B10381E060E00E94030402E0AD
:10016000ECCF033051F781E00E94C40380E690E0B9
:100170000E94B103BE0180E090E00E94230381E071
:1001800060E00E94030484E890E00E94B1036D2DBA
:1001900070E080E090E00E94230385E20E94E40288
:1001A000DF91CF911F910F91FF90EF90DF90CF9053
:1001B0000895813031F1813038F0823009F43EC049
:1001C000833009F072C056C0442321F0413009F059
:1001D0006CC00CC02AB381E090E002C0880F991F68
:1001E0006A95E2F7809582238ABB08952AB381E05D
:1001F00090E002C0880F991F6A95E2F7282B2ABB6E
:100200000895442321F0413009F04FC00CC027B3BA
:1002100081E090E002C0880F991F6A95E2F780950F
:10022000822387BB089527B381E090E002C0880F46
:10023000991F6A95E2F7282B27BB0895442319F0EC
:10024000413099F50CC024B381E090E002C0880FE2
:10025000991F6A95E2F78095822384BB089524B3A1
:1002600081E090E002C0880F991F6A95E2F7282B81
:1002700024BB0895442319F04130B9F40CC021B3D4
:1002800081E090E002C0880F991F6A95E2F780959F
:10029000822381BB089521B381E090E002C0880FE2
:1002A000991F6A95E2F7282B21BB0895813049F008
:1002B000813028F0823039F0833041F406C06ABBC7
:1002C000089567BB089564BB089561BB08958130AC
:1002D00031F1813038F0823009F43EC0833009F0CA
:1002E00072C056C0442321F0413009F06CC00CC0EC
:1002F0002BB381E090E002C0880F991F6A95E2F766
:10030000809582238BBB08952BB381E090E002C0DF
:10031000880F991F6A95E2F7282B2BBB0895442379
:1003200021F0413009F04FC00CC028B381E090E0CB
:1003300002C0880F991F6A95E2F78095822388BBD7
:10034000089528B381E090E002C0880F991F6A9554
:10035000E2F7282B28BB0895442319F0413099F582
:100360000CC025B381E090E002C0880F991F6A9508
:10037000E2F78095822385BB089525B381E090E064
:1003800002C0880F991F6A95E2F7282B25BB0895B4
:10039000442319F04130B9F40CC022B381E090E05D
:1003A00002C0880F991F6A95E2F78095822382BB6D
:1003B000089522B381E090E002C0880F991F6A95EA
:1003C000E2F7282B22BB0895813049F0813028F0D4
:1003D000823039F0833041F406C06BBB089568BBAE
:1003E000089565BB089562BB0895813051F0813056
:1003F00030F0823041F0833079F080E0089589B3A5
:1004000003C086B301C083B390E002C09595879581
:100410006A95E2F78170089580B390E002C09595E7
:1004200087956A95E2F78170089580B5806880BDF0
:1004300080B58F7B80BD80B58E7F80BD80B58F7E7F
:1004400080BD80B58F7D80BD80B5877F80BD80B544
:10045000826080BD80B5846080BD5298599883E3E6
:1004600089B9539A549A08955D9BFECF8F3F9105A9
:1004700009F010F4509801C0509A8CB908951F9358
:10048000CF93DF93EC0110E004C090E00E943402AF
:100490001F5FFE01E10FF11D80818823B1F7DF911D
:1004A000CF911F910895E091A000F091A1003097A5
:1004B00009F009950895E0919E00F0919F00309712
:1004C00009F009950895E0919C00F0919D00309706
:1004D00009F009950895AF92BF92CF92DF92EF9203
:1004E000FF920F931F93CF93DF93E82EDD24DA94CE
:1004F00000E010E028ECA22EB12CC02E8E2D602F33
:1005000040E00E946701E801CC0FDD1FCC0FDD1F2A
:10051000C557DF4F84E0F82E8E2D6F2D0E94F50118
:10052000882341F4D88088EE93E0F5013197F1F704
:100530000197D9F7F394219688E0F81669F78E2D84
:100540006C2D41E00E9467010F5F1F4F04301105C1
:10055000A1F68D2DDF91CF911F910F91FF90EF901C
:10056000DF90CF90BF90AF9008951F93182F60E059
:1005700041E00E94D900812F61E041E00E94D90052
:10058000812F62E041E00E94D900812F63E041E0C9
:100590000E94D900812F64E040E00E94D900812FA1
:1005A00065E040E00E94D900812F66E040E00E94B3
:1005B000D900812F67E040E00E94D900812F6FEFC2
:1005C0000E94E4011F910895FF920F931F93F82E4C
:1005D00082E060E041E00E94670182E061E040E08B
:1005E0000E94670181E06F2D0E94E40182E062E0D9
:1005F00041E00E94670100EA1FE0C8010197F1F79E
:1006000082E062E040E00E946701C8010197F1F7D3
:10061000F29480EFF82281E06F2D0E94E40182E0E5
:1006200062E041E00E946701C8010197F1F782E0B2
:1006300062E040E00E946701C8010197F1F71F9155
:100640000F91FF9008954F925F926F927F928F92D9
:100650009F92AF92BF92CF92DF92EF92FF920F9351
:100660001F93CF93DF937B018C0161157105810589
:10067000910521F480E30E94E40262C097FF0BC061
:100680008DE20E94E40210950095F094E094E11C44
:10069000F11C011D111DC801B701DD240BC0D3944D
:1006A0002AE030E040E050E00E945F04C901DA0136
:1006B000BC01CD01611571058105910581F78D2C76
:1006C0008A9466247724482C552447FC50942BC0E8
:1006D000C601B5012AE030E040E050E00E9440044D
:1006E0005B016C019394892D90E0C817D90784F7BA
:1006F000B701C801A60195010E945F04822F805DA9
:100700000E94E4020894611C711C8820C9F0B701A2
:10071000C801A60195010E945F04AC01CB01DA017A
:100720007C018D018A9487FC0BC09924939491E0FD
:10073000A92EB12CC12CD12CE201C619D709D3CFD7
:10074000DF91CF911F910F91FF90EF90DF90CF90AD
:10075000BF90AF909F908F907F906F905F904F90E1
:1007600008951F93CF93DF93EC0110E003C00E9424
:10077000E4021F5FFE01E10FF11D80818823B9F7BC
:10078000DF91CF911F910895FF920F931F93F82E41
:1007900082E060E040E00E94670182E061E040E0CA
:1007A0000E94670181E06F2D0E94E40182E062E017
:1007B00041E00E94670100EA1FE0C8010197F1F7DC
:1007C00082E062E040E00E946701C8010197F1F712
:1007D000F29420EFF22281E06F2D0E94E40182E08A
:1007E00062E041E00E946701C8010197F1F782E0F1
:1007F00062E040E00E946701C8010197F1F71F9194
:100800000F91FF900895882319F4862F805802C015
:10081000862F80540E94C40308951F9381E06FEFD8
:100820000E94560182E060E041E00E94D90082E02F
:1008300061E041E00E94D90082E062E041E00E9474
:10084000D90080E09AEF0197F1F782E00E94C4039B
:100850008CE20E94C40310E7812F8A95F1F78FE0A4
:100860000E94C4031A95F1F781E00E94C40380EA54
:100870009FE00197F1F786E00E94C4031F9108955D
:10088000629FD001739FF001829FE00DF11D649F74
:10089000E00DF11D929FF00D839FF00D749FF00D00
:1008A000659FF00D9927729FB00DE11DF91F639FA1
:1008B000B00DE11DF91FBD01CF0111240895A1E282
:1008C0001A2EAA1BBB1BFD010DC0AA1FBB1FEE1FCA
:1008D000FF1FA217B307E407F50720F0A21BB30B15
:1008E000E40BF50B661F771F881F991F1A9469F791
:1008F00060957095809590959B01AC01BD01CF01ED
:060900000895F894FFCFFA
:100906004672657175656E63793A20004672657147
:1009160075656E63792C0044757479204379636C30
:10092600653A2000447574793A20003738392F34F7
:0C09360035362A3132332D63303D2B0062
:00000001FF
